:020000040000FA
:0600000083018A01A5281E
:080008008A018801911C3228D5
:100010009110592057205520532021008C170D1581
:100020002000A10B04322008A10021008C13200025
:10003000A208031D0332A401A501143225082404DB
:1000400003190A32A50B0E32A40803190532A40BBA
:1000500005322308A50006322208A4002308A500C3
:1000600021000D112000090020005F30FF0020302A
:10007000840085014E205030FF00A03084004E20C7
:10008000850A4520850A4520850A5030FF0020302A
:1000900084004E205030FF00A03084008001840A8C
:1000A000FF0BFC3308002F3005322D3003322B308C
:1000B0000132293084000030850013000004031948
:1000C000080001308002840A0301803B0800200000
:1000D0002E082F04080020002C082D040800200002
:1000E0002A082B04080020002808290408000530ED
:1000F0000332413001321930F70000000000F70BE5
:10010000FC330800A6002608230091001513951360
:100110001514130820000800A600260823009100EB
:1001200020002708230093001513951315158B1332
:100130008B1BFD3355309600AA30960095148B1713
:100140009518FE331511200008000D216400D520FC
:10015000361D09323611E720B31F0B323612330831
:10016000B500F5200B32B61D0932B611B513F520D6
:10017000053236160A30A3000130A200361A1432B6
:10018000B41F1132E720B31F093234083302031DB4
:1001900005320130A2000130A30006321430A30062
:1001A0000130A2000132A201A6282000AE080319E6
:1001B00003328D1E063208008D1A08003615C8302D
:1001C000AA000A30AE00AA080319B61508002000DC
:1001D000B3010C1B0932B3170D1C33148D1CB3145F
:1001E0008D1D33150D1EB315080020003508F800CD
:1001F000340203190B3222000C1678080F39F9006B
:100200000C08F03979048C00F81B0C12200035081A
:10021000B4003610B41B361408002100951795124F
:1002200095111514951415152100F030990017300B
:100230009700230000308C0000308D0020004F30EC
:100240009C007D309B00210091142000342064002C
:10025000200004308D0010308C002100E0308C0034
:10026000FF308D00640020006430AE006430A000D8
:0A0270000130A1000B178B170800E6
:04027A000034003418
:020000040001F9
:08000000010000000D000400E6
:02000E00A42F1D
:02001000FF1FD0
:02E0000000001E
:00000001FF
